{
  "_format": "hh-sol-artifact-1",
  "contractName": "Freelancer",
  "sourceName": "contracts/Freelancer.sol",
  "abi": [
    {
      "inputs": [],
      "name": "Freelancer_DEADLINE",
      "type": "error"
    },
    {
      "inputs": [],
      "name": "Freelancer_INSUFFICIENT_BALANCE",
      "type": "error"
    },
    {
      "inputs": [],
      "name": "Freelancer_ONLY_ACTIVE_JOB",
      "type": "error"
    },
    {
      "inputs": [],
      "name": "Freelancer_ONLY_HIRED_FREELANCER",
      "type": "error"
    },
    {
      "inputs": [],
      "name": "Freelancer_ONLY_PENDING",
      "type": "error"
    },
    {
      "inputs": [],
      "name": "Freelancer_ONLY_WHITELISTED_FREELANCERS",
      "type": "error"
    },
    {
      "anonymous": false,
      "inputs": [
        {
          "indexed": false,
          "internalType": "uint256",
          "name": "job_id",
          "type": "uint256"
        },
        {
          "indexed": false,
          "internalType": "string",
          "name": "job_title",
          "type": "string"
        },
        {
          "indexed": false,
          "internalType": "uint256",
          "name": "job_deadline",
          "type": "uint256"
        },
        {
          "indexed": false,
          "internalType": "uint256",
          "name": "job_price",
          "type": "uint256"
        }
      ],
      "name": "EVENT_NEWJOB",
      "type": "event"
    },
    {
      "inputs": [
        {
          "internalType": "uint256",
          "name": "",
          "type": "uint256"
        }
      ],
      "name": "JobsRegistry",
      "outputs": [
        {
          "internalType": "string",
          "name": "title",
          "type": "string"
        },
        {
          "internalType": "uint256",
          "name": "deadline",
          "type": "uint256"
        },
        {
          "internalType": "uint256",
          "name": "price",
          "type": "uint256"
        },
        {
          "internalType": "bool",
          "name": "applied",
          "type": "bool"
        },
        {
          "internalType": "address",
          "name": "hiredFreelancer",
          "type": "address"
        },
        {
          "internalType": "enum Freelancer.ProjectStatus",
          "name": "status",
          "type": "uint8"
        }
      ],
      "stateMutability": "view",
      "type": "function"
    },
    {
      "inputs": [
        {
          "internalType": "string",
          "name": "_title",
          "type": "string"
        },
        {
          "internalType": "uint256",
          "name": "_deadline",
          "type": "uint256"
        },
        {
          "internalType": "uint256",
          "name": "_price",
          "type": "uint256"
        }
      ],
      "name": "PostJob",
      "outputs": [],
      "stateMutability": "payable",
      "type": "function"
    },
    {
      "inputs": [],
      "name": "_jobIds",
      "outputs": [
        {
          "internalType": "uint256",
          "name": "",
          "type": "uint256"
        }
      ],
      "stateMutability": "view",
      "type": "function"
    },
    {
      "inputs": [
        {
          "internalType": "uint256",
          "name": "_jobid",
          "type": "uint256"
        }
      ],
      "name": "applyForJob",
      "outputs": [],
      "stateMutability": "nonpayable",
      "type": "function"
    },
    {
      "inputs": [],
      "name": "checkWhitelistedF",
      "outputs": [
        {
          "internalType": "bool",
          "name": "",
          "type": "bool"
        }
      ],
      "stateMutability": "view",
      "type": "function"
    },
    {
      "inputs": [
        {
          "internalType": "uint256",
          "name": "_jobid",
          "type": "uint256"
        }
      ],
      "name": "completeJob",
      "outputs": [],
      "stateMutability": "nonpayable",
      "type": "function"
    },
    {
      "inputs": [
        {
          "internalType": "uint256",
          "name": "_id",
          "type": "uint256"
        }
      ],
      "name": "jobById",
      "outputs": [
        {
          "components": [
            {
              "internalType": "string",
              "name": "title",
              "type": "string"
            },
            {
              "internalType": "uint256",
              "name": "deadline",
              "type": "uint256"
            },
            {
              "internalType": "uint256",
              "name": "price",
              "type": "uint256"
            },
            {
              "internalType": "bool",
              "name": "applied",
              "type": "bool"
            },
            {
              "internalType": "address",
              "name": "hiredFreelancer",
              "type": "address"
            },
            {
              "internalType": "enum Freelancer.ProjectStatus",
              "name": "status",
              "type": "uint8"
            }
          ],
          "internalType": "struct Freelancer.JobDetails",
          "name": "",
          "type": "tuple"
        }
      ],
      "stateMutability": "view",
      "type": "function"
    },
    {
      "inputs": [],
      "name": "listJobs",
      "outputs": [
        {
          "components": [
            {
              "internalType": "string",
              "name": "title",
              "type": "string"
            },
            {
              "internalType": "uint256",
              "name": "deadline",
              "type": "uint256"
            },
            {
              "internalType": "uint256",
              "name": "price",
              "type": "uint256"
            },
            {
              "internalType": "bool",
              "name": "applied",
              "type": "bool"
            },
            {
              "internalType": "address",
              "name": "hiredFreelancer",
              "type": "address"
            },
            {
              "internalType": "enum Freelancer.ProjectStatus",
              "name": "status",
              "type": "uint8"
            }
          ],
          "internalType": "struct Freelancer.JobDetails[]",
          "name": "",
          "type": "tuple[]"
        }
      ],
      "stateMutability": "view",
      "type": "function"
    },
    {
      "inputs": [],
      "name": "totalJobSupply",
      "outputs": [
        {
          "internalType": "uint256",
          "name": "",
          "type": "uint256"
        }
      ],
      "stateMutability": "view",
      "type": "function"
    },
    {
      "inputs": [
        {
          "internalType": "address",
          "name": "",
          "type": "address"
        }
      ],
      "name": "whiteListFreelancer",
      "outputs": [
        {
          "internalType": "bool",
          "name": "",
          "type": "bool"
        }
      ],
      "stateMutability": "view",
      "type": "function"
    },
    {
      "inputs": [],
      "name": "whitelistF",
      "outputs": [],
      "stateMutability": "nonpayable",
      "type": "function"
    }
  ],
  "bytecode": "0x608060405234801561001057600080fd5b5061184a806100206000396000f3fe60806040526004361061009c5760003560e01c8063506566bb11610064578063506566bb146101675780635da7e811146101a9578063a1c0d32f146101d4578063a3417ff9146101fd578063e0c94ae514610228578063ed373e16146102515761009c565b8063078b92d6146100a15780630d64f28a146100de578063264247c9146100f5578063297751de14610120578063329d5e621461014b575b600080fd5b3480156100ad57600080fd5b506100c860048036038101906100c39190610f55565b61028e565b6040516100d59190611186565b60405180910390f35b3480156100ea57600080fd5b506100f361040d565b005b34801561010157600080fd5b5061010a610467565b60405161011791906111b7565b60405180910390f35b34801561012c57600080fd5b50610135610470565b604051610142919061131d565b60405180910390f35b61016560048036038101906101609190611474565b6106cd565b005b34801561017357600080fd5b5061018e60048036038101906101899190610f55565b6108ae565b6040516101a09695949392919061155a565b60405180910390f35b3480156101b557600080fd5b506101be6109ac565b6040516101cb91906111b7565b60405180910390f35b3480156101e057600080fd5b506101fb60048036038101906101f69190610f55565b6109b2565b005b34801561020957600080fd5b50610212610bc3565b60405161021f91906115c2565b60405180910390f35b34801561023457600080fd5b5061024f600480360381019061024a9190610f55565b610c17565b005b34801561025d57600080fd5b5061027860048036038101906102739190611609565b610de8565b60405161028591906115c2565b60405180910390f35b610296610e08565b600160008381526020019081526020016000206040518060c00160405290816000820180546102c490611665565b80601f01602080910402602001604051908101604052809291908181526020018280546102f090611665565b801561033d5780601f106103125761010080835404028352916020019161033d565b820191906000526020600020905b81548152906001019060200180831161032057829003601f168201915b5050505050815260200160018201548152602001600282015481526020016003820160009054906101000a900460ff161515151581526020016003820160019054906101000a900473ffffffffffffffffffffffffffffffffffffffff1673ffffffffffffffffffffffffffffffffffffffff1673ffffffffffffffffffffffffffffffffffffffff1681526020016003820160159054906101000a900460ff1660028111156103f0576103ef611086565b5b600281111561040257610401611086565b5b815250509050919050565b6001600260003373ffffffffffffffffffffffffffffffffffffffff1673ffffffffffffffffffffffffffffffffffffffff16815260200190815260200160002060006101000a81548160ff021916908315150217905550565b60008054905090565b6060600160005410156104af576040517ff9e3f3f900000000000000000000000000000000000000000000000000000000815260040160405180910390fd5b6000805467ffffffffffffffff8111156104cc576104cb611349565b5b60405190808252806020026020018201604052801561050557816020015b6104f2610e08565b8152602001906001900390816104ea5790505b5090506000600190505b60005481116106c557600160008281526020019081526020016000206040518060c001604052908160008201805461054690611665565b80601f016020809104026020016040519081016040528092919081815260200182805461057290611665565b80156105bf5780601f10610594576101008083540402835291602001916105bf565b820191906000526020600020905b8154815290600101906020018083116105a257829003601f168201915b5050505050815260200160018201548152602001600282015481526020016003820160009054906101000a900460ff161515151581526020016003820160019054906101000a900473ffffffffffffffffffffffffffffffffffffffff1673ffffffffffffffffffffffffffffffffffffffff1673ffffffffffffffffffffffffffffffffffffffff1681526020016003820160159054906101000a900460ff16600281111561067257610671611086565b5b600281111561068457610683611086565b5b815250508260018361069691906116c6565b815181106106a7576106a66116fa565b5b602002602001018190525080806106bd90611729565b91505061050f565b508091505090565b8080341015610708576040517f0844f92300000000000000000000000000000000000000000000000000000000815260040160405180910390fd5b60008081548092919061071a90611729565b91905055506000834261072d9190611772565b90506040518060c00160405280868152602001828152602001848152602001600015158152602001600073ffffffffffffffffffffffffffffffffffffffff1681526020016000600281111561078657610785611086565b5b815250600160008054815260200190815260200160002060008201518160000190805190602001906107b9929190610e68565b50602082015181600101556040820151816002015560608201518160030160006101000a81548160ff02191690831515021790555060808201518160030160016101000a81548173ffffffffffffffffffffffffffffffffffffffff021916908373ffffffffffffffffffffffffffffffffffffffff16021790555060a08201518160030160156101000a81548160ff021916908360028111156108605761085f611086565b5b02179055509050507f456af1aa67a349e6d46b30ed64e2026a6a9276857825d746a2b899cf509876df60005486868660405161089f94939291906117c8565b60405180910390a15050505050565b60016020528060005260406000206000915090508060000180546108d190611665565b80601f01602080910402602001604051908101604052809291908181526020018280546108fd90611665565b801561094a5780601f1061091f5761010080835404028352916020019161094a565b820191906000526020600020905b81548152906001019060200180831161092d57829003601f168201915b5050505050908060010154908060020154908060030160009054906101000a900460ff16908060030160019054906101000a900473ffffffffffffffffffffffffffffffffffffffff16908060030160159054906101000a900460ff16905086565b60005481565b803373ffffffffffffffffffffffffffffffffffffffff166001600083815260200190815260200160002060030160019054906101000a900473ffffffffffffffffffffffffffffffffffffffff1673ffffffffffffffffffffffffffffffffffffffff1614610a4e576040517fa9fb3f1200000000000000000000000000000000000000000000000000000000815260040160405180910390fd5b816001600082815260200190815260200160002060010154421115610a9f576040517f1e2dabdc00000000000000000000000000000000000000000000000000000000815260040160405180910390fd5b8260016002811115610ab457610ab3611086565b5b6001600083815260200190815260200160002060030160159054906101000a900460ff166002811115610aea57610ae9611086565b5b14610b21576040517f8bf1dc1b00000000000000000000000000000000000000000000000000000000815260040160405180910390fd5b60026001600086815260200190815260200160002060030160156101000a81548160ff02191690836002811115610b5b57610b5a611086565b5b02179055503373ffffffffffffffffffffffffffffffffffffffff166108fc60016000878152602001908152602001600020600201549081150290604051600060405180830381858888f19350505050158015610bbc573d6000803e3d6000fd5b5050505050565b6000600260003373ffffffffffffffffffffffffffffffffffffffff1673ffffffffffffffffffffffffffffffffffffffff16815260200190815260200160002060009054906101000a900460ff16905090565b60011515600260003373ffffffffffffffffffffffffffffffffffffffff1673ffffffffffffffffffffffffffffffffffffffff16815260200190815260200160002060009054906101000a900460ff16151514610ca1576040517f47f6c84a00000000000000000000000000000000000000000000000000000000815260040160405180910390fd5b8060006002811115610cb657610cb5611086565b5b6001600083815260200190815260200160002060030160159054906101000a900460ff166002811115610cec57610ceb611086565b5b14610d23576040517ff9e3f3f900000000000000000000000000000000000000000000000000000000815260040160405180910390fd5b600180600084815260200190815260200160002060030160006101000a81548160ff021916908315150217905550336001600084815260200190815260200160002060030160016101000a81548173ffffffffffffffffffffffffffffffffffffffff021916908373ffffffffffffffffffffffffffffffffffffffff160217905550600180600084815260200190815260200160002060030160156101000a81548160ff02191690836002811115610ddf57610dde611086565b5b02179055505050565b60026020528060005260406000206000915054906101000a900460ff1681565b6040518060c00160405280606081526020016000815260200160008152602001600015158152602001600073ffffffffffffffffffffffffffffffffffffffff16815260200160006002811115610e6257610e61611086565b5b81525090565b828054610e7490611665565b90600052602060002090601f016020900481019282610e965760008555610edd565b82601f10610eaf57805160ff1916838001178555610edd565b82800160010185558215610edd579182015b82811115610edc578251825591602001919060010190610ec1565b5b509050610eea9190610eee565b5090565b5b80821115610f07576000816000905550600101610eef565b5090565b6000604051905090565b600080fd5b600080fd5b6000819050919050565b610f3281610f1f565b8114610f3d57600080fd5b50565b600081359050610f4f81610f29565b92915050565b600060208284031215610f6b57610f6a610f15565b5b6000610f7984828501610f40565b91505092915050565b600081519050919050565b600082825260208201905092915050565b60005b83811015610fbc578082015181840152602081019050610fa1565b83811115610fcb576000848401525b50505050565b6000601f19601f8301169050919050565b6000610fed82610f82565b610ff78185610f8d565b9350611007818560208601610f9e565b61101081610fd1565b840191505092915050565b61102481610f1f565b82525050565b60008115159050919050565b61103f8161102a565b82525050565b600073ffffffffffffffffffffffffffffffffffffffff82169050919050565b600061107082611045565b9050919050565b61108081611065565b82525050565b7f4e487b7100000000000000000000000000000000000000000000000000000000600052602160045260246000fd5b600381106110c6576110c5611086565b5b50565b60008190506110d7826110b5565b919050565b60006110e7826110c9565b9050919050565b6110f7816110dc565b82525050565b600060c083016000830151848203600086015261111a8282610fe2565b915050602083015161112f602086018261101b565b506040830151611142604086018261101b565b5060608301516111556060860182611036565b5060808301516111686080860182611077565b5060a083015161117b60a08601826110ee565b508091505092915050565b600060208201905081810360008301526111a081846110fd565b905092915050565b6111b181610f1f565b82525050565b60006020820190506111cc60008301846111a8565b92915050565b600081519050919050565b600082825260208201905092915050565b6000819050602082019050919050565b600060c083016000830151848203600086015261121b8282610fe2565b9150506020830151611230602086018261101b565b506040830151611243604086018261101b565b5060608301516112566060860182611036565b5060808301516112696080860182611077565b5060a083015161127c60a08601826110ee565b508091505092915050565b600061129383836111fe565b905092915050565b6000602082019050919050565b60006112b3826111d2565b6112bd81856111dd565b9350836020820285016112cf856111ee565b8060005b8581101561130b57848403895281516112ec8582611287565b94506112f78361129b565b925060208a019950506001810190506112d3565b50829750879550505050505092915050565b6000602082019050818103600083015261133781846112a8565b905092915050565b600080fd5b600080fd5b7f4e487b7100000000000000000000000000000000000000000000000000000000600052604160045260246000fd5b61138182610fd1565b810181811067ffffffffffffffff821117156113a05761139f611349565b5b80604052505050565b60006113b3610f0b565b90506113bf8282611378565b919050565b600067ffffffffffffffff8211156113df576113de611349565b5b6113e882610fd1565b9050602081019050919050565b82818337600083830152505050565b6000611417611412846113c4565b6113a9565b90508281526020810184848401111561143357611432611344565b5b61143e8482856113f5565b509392505050565b600082601f83011261145b5761145a61133f565b5b813561146b848260208601611404565b91505092915050565b60008060006060848603121561148d5761148c610f15565b5b600084013567ffffffffffffffff8111156114ab576114aa610f1a565b5b6114b786828701611446565b93505060206114c886828701610f40565b92505060406114d986828701610f40565b9150509250925092565b600082825260208201905092915050565b60006114ff82610f82565b61150981856114e3565b9350611519818560208601610f9e565b61152281610fd1565b840191505092915050565b6115368161102a565b82525050565b61154581611065565b82525050565b611554816110dc565b82525050565b600060c082019050818103600083015261157481896114f4565b905061158360208301886111a8565b61159060408301876111a8565b61159d606083018661152d565b6115aa608083018561153c565b6115b760a083018461154b565b979650505050505050565b60006020820190506115d7600083018461152d565b92915050565b6115e681611065565b81146115f157600080fd5b50565b600081359050611603816115dd565b92915050565b60006020828403121561161f5761161e610f15565b5b600061162d848285016115f4565b91505092915050565b7f4e487b7100000000000000000000000000000000000000000000000000000000600052602260045260246000fd5b6000600282049050600182168061167d57607f821691505b6020821081141561169157611690611636565b5b50919050565b7f4e487b7100000000000000000000000000000000000000000000000000000000600052601160045260246000fd5b60006116d182610f1f565b91506116dc83610f1f565b9250828210156116ef576116ee611697565b5b828203905092915050565b7f4e487b7100000000000000000000000000000000000000000000000000000000600052603260045260246000fd5b600061173482610f1f565b91507fffffffffffffffffffffffffffffffffffffffffffffffffffffffffffffffff82141561176757611766611697565b5b600182019050919050565b600061177d82610f1f565b915061178883610f1f565b9250827fffffffffffffffffffffffffffffffffffffffffffffffffffffffffffffffff038211156117bd576117bc611697565b5b828201905092915050565b60006080820190506117dd60008301876111a8565b81810360208301526117ef81866114f4565b90506117fe60408301856111a8565b61180b60608301846111a8565b9594505050505056fea2646970667358221220753f70cbb4f2bef57b5a38d8b43855f3402571fc3d28e3090ab01fed56933e8f64736f6c63430008090033",
  "linkReferences": {},
  "deployedLinkReferences": {}
}